:100000000C9462000C948A000C948A000C948A0070
:100010000C948A000C948A000C948A000C948A0038
:100020000C948A000C948A000C948A000C948A0028
:100030000C948A000C948A000C948A000C948A0018
:100040000C9442040C948A000C9482020C94C50215
:100050000C948A000C948A000C948A000C948A00F8
:100060000C948A000C948A00000000070002010032
:100070000003040600000000000000000102040864
:100080001020408001020408102001020408102002
:10009000040404040404040402020202020203032E
:1000A00003030303000000002300260029000000D2
:1000B0000000250028002B0000000000240027007D
:1000C0002A00810311241FBECFEFD8E0DEBFCDBFD1
:1000D00011E0A0E0B1E0E2EEF9E002C005900D927F
:1000E000AC34B107D9F722E0ACE4B1E001C01D9215
:1000F000A730B207E1F710E0C4ECD0E004C02297CB
:10010000FE010E94EB04C23CD107C9F70E94E30143
:100110000C94EF040C94000060E082E00E944B011C
:1001200060E084E00E944B0161E08DE00E944B01A1
:1001300061E082E00E94840161E084E00E94840129
:1001400040E855E260E070E084E591E00C94000343
:1001500082E00E94BA01909353018093520184E09F
:100160000E94BA0190934F0180934E0180915201F9
:1001700090915301892B61F0809150019091510130
:10018000892B31F460E071E084E591E00E94300455
:100190008091520190915301892B61F4809150011B
:1001A00090915101892B31F063E171E084E591E098
:1001B0000E94300480914E0190914F01892B61F093
:1001C00080914C0190914D01892B31F46CE171E0EB
:1001D00084E591E00E94300480914E0190914F019E
:1001E000892B61F480914C0190914D01892B31F064
:1001F00061E371E084E591E00E9430048091520156
:1002000090915301909351018093500180914E0140
:1002100090914F0190934D0180934C0182E00E9498
:10022000BA0161E0892B09F060E08DE00E94840151
:1002300084E00E94BA0161E0892B09F060E08DE062
:100240000C948401833081F028F4813099F082305D
:10025000A1F008958630A9F08730B9F08430D1F448
:10026000809180008F7D03C0809180008F77809384
:100270008000089584B58F7702C084B58F7D84BDDA
:1002800008958091B0008F7703C08091B0008F7D7A
:100290008093B0000895CF93DF9390E0FC01E45881
:1002A000FF4F2491FC01E057FF4F8491882349F1CF
:1002B00090E0880F991FFC01E854FF4FA591B4917D
:1002C00082559F4FFC01C591D4919FB7611108C021
:1002D000F8948C91209582238C93888182230AC084
:1002E000623051F4F8948C91322F309583238C93A3
:1002F0008881822B888304C0F8948C91822B8C9304
:100300009FBFDF91CF9108950F931F93CF93DF93FA
:100310001F92CDB7DEB7282F30E0F901E859FF4F23
:100320008491F901E458FF4F1491F901E057FF4F10
:1003300004910023C9F0882321F069830E942201DF
:100340006981E02FF0E0EE0FFF1FE255FF4FA5910E
:10035000B4919FB7F8948C91611103C010958123DB
:1003600001C0812B8C939FBF0F90DF91CF911F9184
:100370000F910895CF93DF93282F30E0F901E859CA
:10038000FF4F8491F901E458FF4FD491F901E057F0
:10039000FF4FC491CC2391F081110E942201EC2FD8
:1003A000F0E0EE0FFF1FEC55FF4FA591B4912C919B
:1003B0002D2381E090E021F480E002C080E090E015
:1003C000DF91CF9108950E948C040E948C00CCEBA9
:1003D000D2E00E94A8002097E1F30E94BC02F9CF6E
:1003E000FC0124853585F901E05CFF4F8081918116
:1003F000329620813181821B930B8F739927089548
:10040000FC0184859585FC01E05CFF4F40815181B2
:100410003296208131814217530741F00190F081DB
:10042000E02DE80FF91F808190E008958FEF9FEF96
:100430000895FC0184859585FC01E05CFF4F4081B7
:1004400051813296208131814217530779F0A08182
:10045000B181A80FB91F8C91208131812F5F3F4F4F
:100460002F7333273183208390E008958FEF9FEF20
:100470000895FC0181A1882329F0A489B5898C9174
:1004800086FFFBCF11A20895CF93DF93FC01268551
:100490003785D901A05CBF4F8D919C911197019632
:1004A0008F739927E901CE5BDF4F4881598184170B
:1004B0009507D9F30D90BC91A02DA20FB31F6C939B
:1004C000A685B785A05CBF4F11969C938E93A68995
:1004D000B7892C9181E090E0078C02C0880F991FAA
:1004E0000A94E2F7282B2C9381E081A30488F589F4
:1004F000E02D80818064808381E090E0DF91CF9166
:10050000089508951F920F920FB60F9211242F9302
:100510003F934F938F939F93EF93FF938091C000EE
:1005200082FD1CC04091C6008091FA019091FB01B0
:1005300001968F7399272091FC013091FD0182175C
:10054000930771F0E091FA01F091FB01E654FE4F40
:1005500040839093FB018093FA0102C08091C60012
:10056000FF91EF919F918F914F913F912F910F901C
:100570000FBE0F901F90189584E591E00E94F00146
:10058000892B11F00C94810208951F920F920FB6DF
:100590000F9211242F933F938F939F93EF93FF9389
:1005A0002091B6013091B7018091B8019091B901C5
:1005B0002817390731F48091C1008F7D8093C100E5
:1005C00014C0E091B801F091B901EA58FE4F2081C2
:1005D0008091B8019091B90101968F7399279093FA
:1005E000B9018093B8012093C600FF91EF919F91CC
:1005F0008F913F912F910F900FBE0F901F901895E4
:10060000CF92DF92EF92FF92CF93DF93EC016A01DA
:100610007B01411581EE580761057105F9F0EC8900
:10062000FD8981E090E008A002C0880F991F0A941C
:10063000E2F7808360E079E08DE390E0A701960126
:100640000E94C70421503109410951095695479527
:1006500037952795211580E1380798F0EC89FD89B9
:10066000108260E874E88EE190E0A70196010E9494
:10067000C7042150310941095109569547953795CD
:100680002795E889F9893083EA89FB89208319A2B3
:10069000EE89FF89408181E090E09C010C8C02C0D2
:1006A000220F331F0A94E2F7422B4083EE89FF8921
:1006B00040819C010D8C02C0220F331F0A94E2F787
:1006C000422B4083EE89FF8940819C010E8C02C041
:1006D000220F331F0A94E2F7422B4083EE89FF89F1
:1006E00020810F8C02C0880F991F0A94E2F7809531
:1006F00082238083DF91CF91FF90EF90DF90CF90A6
:100700000895109257011092560188EE93E0A0E0F0
:10071000B0E08093580190935901A0935A01B0938F
:100720005B0180E491E090935501809354018AEB42
:1007300091E0909361018093600186E791E090934E
:1007400063018093620185EC90E090936501809352
:10075000640184EC90E0909367018093660180ECE3
:1007600090E0909369018093680181EC90E0909310
:100770006B0180936A0182EC90E090936D0180930D
:100780006C0186EC90E090936F0180936E0184E0A1
:100790008093700183E08093710187E08093720100
:1007A00085E08093730181E0809374010895CF9276
:1007B000DF92EF92FF920F931F93CF93DF936C0121
:1007C0007A01EB01E60EF71E00E010E0CE15DF0522
:1007D00061F06991D601ED91FC910190F081E02DDD
:1007E000C6010995080F191FF1CFC801DF91CF91FC
:1007F0001F910F91FF90EF90DF90CF9008956115BA
:10080000710581F0DB010D900020E9F7AD01415049
:100810005109461B570BDC01ED91FC910280F381DD
:10082000E02D099480E090E00895DC01ED91FC91C9
:100830000190F081E02D09940F931F93CF93DF93E4
:10084000EC016DE00E9415048C016AE0CE010E946B
:100850001504800F911FDF91CF911F910F91089583
:100860000F931F93CF93DF93EC010E94FF038C0142
:10087000CE010E941C04800F911FDF91CF911F9128
:100880000F9108951F920F920FB60F9211242F937C
:100890003F938F939F93AF93BF938091FF0190916C
:1008A0000002A0910102B09102023091FE0123E00A
:1008B000230F2D3720F40196A11DB11D05C026E898
:1008C000230F0296A11DB11D2093FE018093FF010D
:1008D00090930002A0930102B09302028091030260
:1008E00090910402A0910502B09106020196A11D0B
:1008F000B11D8093030290930402A0930502B0936C
:100900000602BF91AF919F918F913F912F910F90D0
:100910000FBE0F901F901895789484B5826084BDA7
:1009200084B5816084BD85B5826085BD85B58160F3
:1009300085BDEEE6F0E0808181608083E1E8F0E053
:100940001082808182608083808181608083E0E882
:10095000F0E0808181608083E1EBF0E08081846061
:100960008083E0EBF0E0808181608083EAE7F0E063
:1009700080818460808380818260808380818160C7
:1009800080838081806880831092C1000895A1E2F5
:100990001A2EAA1BBB1BFD010DC0AA1FBB1FEE1FF9
:1009A000FF1FA217B307E407F50720F0A21BB30B44
:1009B000E40BF50B661F771F881F991F1A9469F7C0
:1009C00060957095809590959B01AC01BD01CF011C
:1009D0000895EE0FFF1F0590F491E02D0994F8940F
:0209E000FFCF47
:1009E200526564204265616D20556E62726F6B655F
:1009F2006E2E00676F616C2E72656400426C6163DB
:100A02006B204265616D20556E62726F6B656E2E52
:100A120000676F616C2E626C61636B000000000006
:0C0A22004402D703F0011902000239025F
:00000001FF
