:100000000C9435000C945D000C945D000C945D0024
:100010000C945D000C945D000C945D000C945D00EC
:100020000C945D000C945D000C945D000C945D00DC
:100030000C945D000C945D000C945D000C945D00CC
:100040000C947F000C945D000C94EC010C942F0236
:100050000C945D000C945D000C945D000C945D00AC
:100060000C945D000C945D00EB0211241FBECFEFD9
:10007000D8E0DEBFCDBF11E0A0E0B1E0ECEAF7E0F0
:1000800002C005900D92A432B107D9F721E0A4E295
:10009000B1E001C01D92A73DB207E1F710E0CAE64A
:1000A000D0E004C02297FE010E94D003C836D107D9
:1000B000C9F70E944D010C94D4030C94000040E851
:1000C00055E260E070E08DE291E00C946A0260E03D
:1000D00071E08DE291E00E949A036CED75E080E0A2
:1000E00090E00E94EC0069E071E08DE291E00E94F6
:1000F0009A036CED75E080E090E00C94EC001F92A8
:100100000F920FB60F9211242F933F938F939F93CB
:10011000AF93BF938091250190912601A091270173
:10012000B09128013091240123E0230F2D3720F4D2
:100130000196A11DB11D05C026E8230F0296A11D41
:10014000B11D209324018093250190932601A09353
:100150002701B09328018091290190912A01A09153
:100160002B01B0912C010196A11DB11D8093290195
:1001700090932A01A0932B01B0932C01BF91AF91D2
:100180009F918F913F912F910F900FBE0F901F90D5
:1001900018953FB7F8948091290190912A01A09178
:1001A0002B01B0912C0126B5A89B05C02F3F19F05B
:1001B0000196A11DB11D3FBF6627782F892F9A2F69
:1001C000620F711D811D911D42E0660F771F881F10
:1001D000991F4A95D1F70895CF92DF92EF92FF923F
:1001E000CF93DF936B017C010E94C900EB01C11426
:1001F000D104E104F10479F00E94C9006C1B7D0B6D
:10020000683E7340A0F381E0C81AD108E108F10804
:10021000C851DC4FECCFDF91CF91FF90EF90DF9092
:10022000CF900895789484B5826084BD84B5816050
:1002300084BD85B5826085BD85B5816085BDEEE6EE
:10024000F0E0808181608083E1E8F0E010828081CD
:1002500082608083808181608083E0E8F0E080813B
:1002600081608083E1EBF0E0808184608083E0EB5B
:10027000F0E0808181608083EAE7F0E08081846043
:10028000808380818260808380818160808380819F
:10029000806880831092C10008950E9412010E941C
:1002A0005F00C6E2D2E00E9467002097E1F30E945F
:1002B0002602F9CFFC0124853585F901E05CFF4F6A
:1002C00080819181329620813181821B930B8F73C3
:1002D00099270895FC0184859585FC01E05CFF4F1A
:1002E000408151813296208131814217530741F07C
:1002F0000190F081E02DE80FF91F808190E00895D2
:100300008FEF9FEF0895FC0184859585FC01E05CEB
:10031000FF4F40815181329620813181421753072E
:1003200079F0A081B181A80FB91F8C912081318112
:100330002F5F3F4F2F7333273183208390E0089541
:100340008FEF9FEF0895FC0181A1882329F0A489F4
:10035000B5898C9186FFFBCF11A20895CF93DF93CF
:10036000FC0126853785D901A05CBF4F8D919C91FA
:10037000119701968F739927E901CE5BDF4F488172
:10038000598184179507D9F30D90BC91A02DA20F28
:10039000B31F6C93A685B785A05CBF4F11969C9345
:1003A0008E93A689B7892C9181E090E0078C02C0DA
:1003B000880F991F0A94E2F7282B2C9381E081A3E0
:1003C0000488F589E02D80818064808381E090E05D
:1003D000DF91CF91089508951F920F920FB60F925B
:1003E00011242F933F934F938F939F93EF93FF93FA
:1003F0008091C00082FD1CC04091C6008091D30155
:100400009091D40101968F7399272091D501309155
:10041000D6018217930771F0E091D301F091D401D6
:10042000ED56FE4F40839093D4018093D30102C0D8
:100430008091C600FF91EF919F918F914F913F91D5
:100440002F910F900FBE0F901F9018958DE291E0A5
:100450000E945A01892B11F00C94EB0108951F9210
:100460000F920FB60F9211242F933F938F939F9368
:10047000EF93FF9320918F01309190018091910132
:10048000909192012817390731F48091C1008F7D36
:100490008093C10014C0E0919101F0919201E15B61
:1004A000FE4F2081809191019091920101968F736E
:1004B000992790939201809391012093C600FF9118
:1004C000EF919F918F913F912F910F900FBE0F90C1
:1004D0001F901895CF92DF92EF92FF92CF93DF9308
:1004E000EC016A017B01411581EE58076105710538
:1004F000F9F0EC89FD8981E090E008A002C0880F46
:10050000991F0A94E2F7808360E079E08DE390E040
:10051000A70196010E94AC032150310941095109FC
:100520005695479537952795211580E1380798F01E
:10053000EC89FD89108260E874E88EE190E0A70103
:1005400096010E94AC032150310941095109569589
:10055000479537952795E889F9893083EA89FB899A
:10056000208319A2EE89FF89408181E090E09C01FF
:100570000C8C02C0220F331F0A94E2F7422B4083F7
:10058000EE89FF8940819C010D8C02C0220F331F30
:100590000A94E2F7422B4083EE89FF8940819C0157
:1005A0000E8C02C0220F331F0A94E2F7422B4083C5
:1005B000EE89FF8920810F8C02C0880F991F0A9451
:1005C000E2F7809582238083DF91CF91FF90EF90B7
:1005D000DF90CF9008951092300110922F0188EE95
:1005E00093E0A0E0B0E08093310190933201A093BA
:1005F0003301B093340188E191E090932E01809310
:100600002D0183E991E090933A01809339018FE4C1
:1006100091E090933C0180933B0185EC90E09093B6
:100620003E0180933D0184EC90E0909340018093E3
:100630003F0180EC90E0909342018093410181EC76
:1006400090E0909344018093430182EC90E090937A
:1006500046018093450186EC90E090934801809399
:10066000470184E08093490183E080934A0187E059
:1006700080934B0185E080934C0181E080934D0194
:100680000895CF92DF92EF92FF920F931F93CF9333
:10069000DF936C017A01EB01E60EF71E00E010E03B
:1006A000CE15DF0561F06991D601ED91FC910190C5
:1006B000F081E02DC6010995080F191FF1CFC8017F
:1006C000DF91CF911F910F91FF90EF90DF90CF902E
:1006D00008956115710581F0DB010D900020E9F7A7
:1006E000AD0141505109461B570BDC01ED91FC91C6
:1006F0000280F381E02D099480E090E00895DC0110
:10070000ED91FC910190F081E02D09940F931F93DE
:10071000CF93DF93EC016DE00E947F038C016AE0D0
:10072000CE010E947F03800F911FDF91CF911F9117
:100730000F9108950F931F93CF93DF93EC010E94C5
:1007400069038C01CE010E948603800F911FDF9107
:10075000CF911F910F910895A1E21A2EAA1BBB1BE6
:10076000FD010DC0AA1FBB1FEE1FFF1FA217B3077D
:10077000E407F50720F0A21BB30BE40BF50B661F93
:10078000771F881F991F1A9469F760957095809557
:1007900090959B01AC01BD01CF010895EE0FFF1FA5
:0C07A0000590F491E02D0994F894FFCF2F
:1007AC00676F616C2E72656400676F616C2E626C92
:1007BC0061636B0000000000AE0141035A0183012C
:0407CC006A01A3011A
:00000001FF
