:100000000C9462000C948A000C948A000C948A0070
:100010000C948A000C948A000C948A000C948A0038
:100020000C948A000C9456020C948A000C948A005A
:100030000C948A000C948A000C948A000C948A0018
:100040000C94F8020C948A000C94F4040C94370578
:100050000C948A000C948A000C948A000C948A00F8
:100060000C948A000C948A00000000070002010032
:100070000003040600000000000000000102040864
:100080001020408001020408102001020408102002
:10009000040404040404040402020202020203032E
:1000A00003030303000000002300260029000000D2
:1000B0000000250028002B0000000000240027007D
:1000C0002A00F30511241FBECFEFD8E0DEBFCDBF5D
:1000D00011E0A0E0B1E0EAEFFDE002C005900D9272
:1000E000AE35B107D9F722E0AEE5B1E001C01D920F
:1000F000A03DB207E1F710E0C4ECD0E004C02297C5
:10010000FE010E94F706C23CD107C9F70E945504C0
:100110000C94FB060C94000060E082E00E94BD039A
:1001200060E084E00E94BD0361E08DE00E94BD03B9
:1001300060E085E00E94BD0360E086E00E94BD03B0
:1001400060E087E00E94BD0366E270E08EE591E02A
:100150000E94270260E070E08EE591E00E941F029D
:1001600040E855E260E070E086E292E00C947205AF
:100170008F929F92AF92BF92EF92FF920F931F9335
:10018000CF93DF9382E00E942C0490937E018093B2
:100190007D0184E00E942C0490937A018093790180
:1001A00085E00E942C047C0186E00E942C048C01D6
:1001B00087E00E942C04EC0180916B0190916C010E
:1001C000E816F90651F00E944203609367017093AC
:1001D00068018093690190936A010E9442038090B4
:1001E000670190906801A0906901B0906A01681958
:1001F00079098A099B098090000190900101A090E3
:100200000201B090030186169706A806B906A8F465
:1002100080916D0190916E01E816F90671F0F092EF
:100220006E01E0926D0181E0E816F10431F464E0C2
:1002300071E086E292E00E94A206809173019091A3
:1002400074010817190751F00E944203609363017B
:100250007093640180936501909366010E9442034C
:100260008090630190906401A0906501B090660158
:10027000681979098A099B09809000019090010111
:10028000A0900201B090030186169706A806B90651
:10029000A0F480917501909176010817190769F013
:1002A00010937601009375010130110531F462E17C
:1002B00071E086E292E00E94A20680916F01909127
:1002C0007001C817D90751F00E94420360935F0183
:1002D0007093600180936101909362010E944203D8
:1002E00080905F0190906001A0906101B0906201E8
:1002F000681979098A099B09809000019090010191
:10030000A0900201B090030186169706A806B906D0
:10031000A0F48091710190917201C817D90769F01A
:10032000D0937201C0937101C130D10531F46BE1FA
:1003300071E086E292E00E94A20680917D01909198
:100340007E01892B61F080917B0190917C01892B4A
:1003500031F466E271E086E292E00E94A2068091AA
:100360007D0190917E01892B61F480917B019091B8
:100370007C01892B31F062E171E086E292E00E941B
:10038000A2068091790190917A01892B61F0809188
:10039000770190917801892B31F469E371E086E26D
:1003A00092E00E94A2068091790190917A01892BB6
:1003B00061F48091770190917801892B31F06BE1A4
:1003C00071E086E292E00E94A20680917D01909108
:1003D0007E0190937C0180937B01809179019091C3
:1003E0007A019093780180937701F0926C01E0920A
:1003F0006B011093740100937301D0937001C0934B
:100400006F0182E00E942C0461E0892B09F060E01A
:100410008DE00E94F60384E00E942C0461E0892BA9
:1004200009F060E08DE0DF91CF911F910F91FF9077
:10043000EF90BF90AF909F908F900C94F603CB01FC
:10044000E0EBF0E02081206220830C944E03CF93F8
:10045000DF93EB01E0E7F0E080818E7F808361E055
:1004600089E00E94BD0360E089E00E94F60381E01C
:100470008093B00089E08093B1009E01442737FD4E
:100480004095542F60E47FE180E090E00E94D60622
:10049000E3EBF0E0208390818BEA989F812D11247B
:1004A00086958093B400DF91CF9108951F920F92AB
:1004B0000FB60F9211242F933F934F935F936F9337
:1004C0007F938F939F93AF93BF93EF93FF9381EAB3
:1004D0008093B20080917F010E942C0420918201C0
:1004E000309183012F5F3F4F30938301209382012E
:1004F00090911C029C3418F095E0909380019091AB
:1005000080019330B9F018F4923039F057C094302C
:1005100059F1953009F44CC051C081114FC0209160
:100520008201309183012436310508F443C01092D2
:100530001C021CC0813009F041C0E0911C0291E016
:100540009E0F90931C02F0E0209182013091830174
:10055000EE0FFF1FE158FE4F368325831092830173
:100560001092820194E021C0811117C0E0911C0219
:1005700091E09E0F90931C02F0E020918201309157
:100580008301EE0FFF1FE158FE4F36832583109243
:1005900083011092820193E008C020918201309182
:1005A00083012536310550F095E09093800106C017
:1005B000811104C0109283011092820190918101F7
:1005C000992329F0811102C02D9A01C02D98FF9125
:1005D000EF91BF91AF919F918F917F916F915F91BB
:1005E0004F913F912F910F900FBE0F901F90189534
:1005F0001F920F920FB60F9211242F933F938F9358
:100600009F93AF93BF9380911E0290911F02A09180
:100610002002B091210230911D0223E0230F2D37DB
:1006200020F40196A11DB11D05C026E8230F0296F6
:10063000A11DB11D20931D0280931E0290931F02E5
:10064000A0932002B0932102809122029091230274
:10065000A0912402B09125020196A11DB11D8093A5
:10066000220290932302A0932402B0932502BF910B
:10067000AF919F918F913F912F910F900FBE0F904F
:100680001F9018952FB7F89460911E0270911F0269
:1006900080912002909121022FBF08950197009729
:1006A00039F0880F991F880F991F02970197F1F76A
:1006B0000895789484B5826084BD84B5816084BDDA
:1006C00085B5826085BD85B5816085BDEEE6F0E0CB
:1006D000808181608083E1E8F0E010828081826027
:1006E0008083808181608083E0E8F0E080818160A8
:1006F0008083E1EBF0E0808184608083E0EBF0E0D8
:10070000808181608083EAE7F0E08081846080837B
:100710008081826080838081816080838081806825
:1007200080831092C1000895833081F028F48130D5
:1007300099F08230A1F008958630A9F08730B9F0A1
:100740008430D1F4809180008F7D03C0809180003F
:100750008F7780938000089584B58F7702C084B529
:100760008F7D84BD08958091B0008F7703C0809104
:10077000B0008F7D8093B0000895CF93DF9390E019
:10078000FC01E458FF4F2491FC01E057FF4F849196
:10079000882349F190E0880F991FFC01E854FF4F2E
:1007A000A591B49182559F4FFC01C591D4919FB7FB
:1007B000611108C0F8948C91209582238C938881D4
:1007C00082230AC0623051F4F8948C91322F309514
:1007D00083238C938881822B888304C0F8948C9126
:1007E000822B8C939FBFDF91CF9108950F931F931E
:1007F000CF93DF931F92CDB7DEB7282F30E0F901FA
:10080000E859FF4F8491F901E458FF4F1491F90121
:10081000E057FF4F04910023C9F0882321F069833A
:100820000E9494036981E02FF0E0EE0FFF1FE25574
:10083000FF4FA591B4919FB7F8948C91611103C0BB
:100840001095812301C0812B8C939FBF0F90DF9166
:10085000CF911F910F910895CF93DF93282F30E010
:10086000F901E859FF4F8491F901E458FF4FD49101
:10087000F901E057FF4FC491CC2391F081110E9400
:100880009403EC2FF0E0EE0FFF1FEC55FF4FA59106
:10089000B4912C912D2381E090E021F480E002C0FE
:1008A00080E090E0DF91CF9108950E9459030E946B
:1008B0008C00CEE2D5E00E94B8002097E1F30E94C0
:1008C0002E05F9CFFC0124853585F901E05CFF4F49
:1008D00080819181329620813181821B930B8F73AD
:1008E00099270895FC0184859585FC01E05CFF4F04
:1008F000408151813296208131814217530741F066
:100900000190F081E02DE80FF91F808190E00895BB
:100910008FEF9FEF0895FC0184859585FC01E05CD5
:10092000FF4F408151813296208131814217530718
:1009300079F0A081B181A80FB91F8C9120813181FC
:100940002F5F3F4F2F7333273183208390E008952B
:100950008FEF9FEF0895FC0181A1882329F0A489DE
:10096000B5898C9186FFFBCF11A20895CF93DF93B9
:10097000FC0126853785D901A05CBF4F8D919C91E4
:10098000119701968F739927E901CE5BDF4F48815C
:10099000598184179507D9F30D90BC91A02DA20F12
:1009A000B31F6C93A685B785A05CBF4F11969C932F
:1009B0008E93A689B7892C9181E090E0078C02C0C4
:1009C000880F991F0A94E2F7282B2C9381E081A3CA
:1009D0000488F589E02D80818064808381E090E047
:1009E000DF91CF91089508951F920F920FB60F9245
:1009F00011242F933F934F938F939F93EF93FF93E4
:100A00008091C00082FD1CC04091C6008091CC0244
:100A10009091CD0201968F7399272091CE0230914B
:100A2000CF028217930771F0E091CC02F091CD02D2
:100A3000E457FD4F40839093CD028093CC0202C0D7
:100A40008091C600FF91EF919F918F914F913F91BF
:100A50002F910F900FBE0F901F90189586E292E095
:100A60000E946204892B11F00C94F30408951F92E4
:100A70000F920FB60F9211242F933F938F939F9352
:100A8000EF93FF93209188023091890280918A022E
:100A900090918B022817390731F48091C1008F7D26
:100AA0008093C10014C0E0918A02F0918B02E85B50
:100AB000FD4F208180918A0290918B0201968F7365
:100AC000992790938B0280938A022093C600FF910E
:100AD000EF919F918F913F912F910F900FBE0F90AB
:100AE0001F901895CF92DF92EF92FF92CF93DF93F2
:100AF000EC016A017B01411581EE58076105710522
:100B0000F9F0EC89FD8981E090E008A002C0880F2F
:100B1000991F0A94E2F7808360E079E08DE390E02A
:100B2000A70196010E94B4062150310941095109DB
:100B30005695479537952795211580E1380798F008
:100B4000EC89FD89108260E874E88EE190E0A701ED
:100B500096010E94B4062150310941095109569568
:100B6000479537952795E889F9893083EA89FB8984
:100B7000208319A2EE89FF89408181E090E09C01E9
:100B80000C8C02C0220F331F0A94E2F7422B4083E1
:100B9000EE89FF8940819C010D8C02C0220F331F1A
:100BA0000A94E2F7422B4083EE89FF8940819C0141
:100BB0000E8C02C0220F331F0A94E2F7422B4083AF
:100BC000EE89FF8920810F8C02C0880F991F0A943B
:100BD000E2F7809582238083DF91CF91FF90EF90A1
:100BE000DF90CF900895109229021092280288EE8B
:100BF00093E0A0E0B0E080932A0290932B02A093B0
:100C00002C02B0932D0282E591E09093270280930D
:100C100026028CE892E0909333028093320288E4BB
:100C200092E0909335028093340285EC90E09093AB
:100C300037028093360284EC90E0909339028093DF
:100C4000380280EC90E090933B0280933A0281EC72
:100C500090E090933D0280933C0282EC90E0909370
:100C60003F0280933E0286EC90E090934102809395
:100C7000400284E08093420283E08093430287E055
:100C80008093440285E08093450281E08093460290
:100C90000895CF92DF92EF92FF920F931F93CF931D
:100CA000DF936C017A01EB01E60EF71E00E010E025
:100CB000CE15DF0561F06991D601ED91FC910190AF
:100CC000F081E02DC6010995080F191FF1CFC80169
:100CD000DF91CF911F910F91FF90EF90DF90CF9018
:100CE00008956115710581F0DB010D900020E9F791
:100CF000AD0141505109461B570BDC01ED91FC91B0
:100D00000280F381E02D099480E090E00895DC01F9
:100D1000ED91FC910190F081E02D09940F931F93C8
:100D2000CF93DF93EC016DE00E9487068C016AE0AF
:100D3000CE010E948706800F911FDF91CF911F91F6
:100D40000F9108950F931F93CF93DF93EC010E94AF
:100D500071068C01CE010E948E06800F911FDF91DB
:100D6000CF911F910F910895A1E21A2EAA1BBB1BD0
:100D7000FD010DC0AA1FBB1FEE1FFF1FA217B30767
:100D8000E407F50720F0A21BB30BE40BF50B661F7D
:100D9000771F881F991F1A9469F760957095809541
:100DA00090959B01AC01BD01CF010895052E97FBE5
:100DB0001EF400940E94ED0657FD07D00E94B40671
:100DC00007FC03D04EF40C94ED06509540953095F9
:100DD00021953F4F4F4F5F4F0895909580957095A7
:100DE00061957F4F8F4F9F4F0895EE0FFF1F059026
:0A0DF000F491E02D0994F894FFCF70
:100DFA003200000067616D652E73746172744E650E
:100E0A007700676F616C2E72656400676F616C2E84
:100E1A00626C61636B00526564204265616D2055A6
:100E2A006E62726F6B656E2E00426C61636B20425C
:100E3A0065616D20556E62726F6B656E2E000000E3
:0E0E4A000000B604490662048B047204AB0477
:00000001FF
